S012000057656176795F4E616D652E7372656326
S11300000C942A000C943F000C943F000C943F0085
S11300100C943F000C943F000C943F000C943F0060
S11300200C943F000C943F000C943F000C943F0050
S11300300C943F000C943F000C943F000C943F0040
S11300400C943F000C943F000C943F000C943F0030
S11300500C943F0011241FBECFE5D8E0DEBFCDBF16
S113006010E0A0E6B0E0E2EDF4E002C005900D92ED
S1130070A038B107D9F70E9441000C9467020C9490
S11300800000CF93DF93CDB7DEB7A0970FB6F894F7
S1130090DEBF0FBECDBF6FEF80E00E94570288E045
S11300A0E0E6F0E0DE01119601900D928A95E1F709
S11300B088E0E8E6F0E0DE01199601900D928A9559
S11300C0E1F788E0E0E7F0E0DE01519601900D925F
S11300D08A95E1F788E0E8E7F0E0DE0159960190BF
S11300E00D928A95E1F70E94960100E010E0A3C00A
S11300F0173289F4202F412FBE016F5F7F4F80E0BC
S11301000E94BD01602F87E20E94B50181E00E9438
S11301107C0110E00AC0202F412F440F440FBE0180
S11301206F5F7F4F80E00E94BD01163289F4202F5B
S1130130412FBE01675F7F4F81E00E94BD01602FA8
S113014086E20E94B50181E00E947C0110E00BC0B0
S1130150412F440F440F4150202FBE01675F7F4F52
S113016081E00E94BD01153289F4202F412FBE0188
S11301706F5E7F4F82E00E94BD01602F85E20E9486
S1130180B50181E00E947C0110E00BC0412F440FB7
S1130190440F4250202FBE016F5E7F4F82E00E94C9
S11301A0BD01143289F4202F412FBE01675E7F4FB9
S11301B083E00E94BD01602F84E20E94B50181E0CA
S11301C00E947C0110E00BC0412F440F440F4350A8
S11301D0202FBE01675E7F4F83E00E94BD01133272
S11301E081F4602F812F0E94B50180E20E94620198
S11301F0602F83E20E94B50181E00E947C0110E03F
S11302000BC0812F90E00197602F880F880F0E9408
S1130210B50180E20E94620181E008272FEF82E5A8
S113022097E0215080409040E1F700C0000081E059
S11302300E947C011F5F1A3008F45ACF57CF0F93E6
S11302401F93CF93DF9300D000D0CDB7DEB7082F34
S113025083E0898384E08A8385E08B8386E08C83D2
S113026010E014C0402F50E0012E02C05595479570
S11302700A94E2F74170E1E0F0E0EC0FFD1FE10FBA
S1130280F11D608180E00E94E7011F5F143050F38C
S11302900F900F900F900F90DF91CF911F910F91BE
S11302A0089541E062E080E00E94E7018FE39FE16E
S11302B00197F1F700C0000040E062E080E00E9496
S11302C0E7010895CF93C82F41E061E080E00E94E8
S11302D0E70140E060E080E00E94E7018C2F829516
S11302E08F700E941F010E9451018C2F0E941F01D8
S11302F00E945101CF910895CF93C82F40E061E04F
S113030080E00E94E70140E060E080E00E94E701B5
S11303108C2F82958F700E941F010E9451018C2F97
S11303200E941F010E945101CF9108952FEF83EF86
S113033091E0215080409040E1F700C0000082E04D
S11303400E941F010E94510182E00E941F010E942D
S1130350510188E00E941F010E9451018CE00E941B
S11303607C0181E00E947C01089590E4699F800DE6
S1130370112480680E947C010895EF92FF920F93EC
S11303801F93CF93DF93D82F8B01F42EE22E880F87
S1130390880F880F8F7780640E947C01C0E007C0BB
S11303A0F801EC0FF11D80810E946201CF5FC8301B
S11303B0B8F36E2D8F2D0E94B5018D2F0E9462011E
S11303C0DF91CF911F910F91FF90EF9008954130ED
S11303D0A1F5813089F028F08230C9F0833011F121
S11303E008952BB381E090E002C0880F991F6A95AD
S11303F0E2F7822B8BBB089528B381E090E002C022
S1130400880F991F6A95E2F7822B88BB089525B35C
S113041081E090E002C0880F991F6A95E2F7822B71
S113042085BB089522B381E090E002C0880F991F34
S11304306A95E2F7822B82BB0895411137C081305F
S113044091F028F08230D9F0833029F108952BB34C
S113045081E090E002C0880F991F6A95E2F78095C9
S113046082238BBB089528B381E090E002C0880FFB
S1130470991F6A95E2F78095822388BB089525B376
S113048081E090E002C0880F991F6A95E2F7809599
S1130490822385BB089522B381E090E002C0880FD7
S11304A0991F6A95E2F78095822382BB0895813073
S11304B041F028F0823039F0833039F008956ABB76
S11304C0089567BB089564BB089561BB0895F894CB
S10504D0FFCF58
S11304D2000101011F00050000001C141F041C0080
S11304E2000707071F000000020007151F00000095
S9030000FC
