S01200004B50445F4472697665722E7372656368
S11300000C942A000C9434000C9434000C943400A6
S11300100C9434000C9434000C9434000C9434008C
S11300200C9434000C9434000C9434000C9434007C
S11300300C9434000C9434000C9434000C9434006C
S11300400C9434000C9434000C9434000C9434005C
S11300500C94340011241FBECFE5D8E0DEBFCDBF21
S11300600E9436000C9404040C9400006FEF80E0AE
S11300700E94D2030E9456000E94530260E080E076
S11300800E9472026FEF70E080E090E00E947A02BA
S11300900E94A700C82F60E080E00E9472026C2FCB
S11300A070E080E090E00E947A02F2CF40E064E0E9
S11300B081E00E94C40240E065E081E00E94C40245
S11300C040E066E081E00E94C40240E067E081E035
S11300D00E94C40241E064E081E00E94340341E0F4
S11300E065E081E00E94340341E066E081E00E9423
S11300F0340341E067E081E00E94340340E062E0C1
S113010083E00E94C40240E063E083E00E94C402F2
S113011040E064E083E00E94C40240E065E083E0E4
S11301200E94C40241E062E083E00E94340341E0A3
S113013063E083E00E94340341E064E083E00E94D2
S1130140340341E065E083E00E9434030895CF93D3
S113015041E062E083E00E94C40240E062E083E0A8
S11301600E94340364E081E00E94A403811108C06A
S113017064E081E00E94A4038823D1F3C7E019C19D
S113018065E081E00E94A403811108C065E081E07C
S11301900E94A4038823D1F3C4E00BC166E081E08C
S11301A00E94A403811108C066E081E00E94A403B8
S11301B08823D1F3C1E0FDC067E081E00E94A4037D
S11301C0811108C067E081E00E94A4038823D1F371
S11301D0C3E6EFC040E062E083E00E94C40241E075
S11301E063E083E00E94C40241E062E083E00E9495
S11301F0340340E063E083E00E94340364E081E080
S11302000E94A403811108C064E081E00E94A40359
S11302108823D1F3C8E0CDC065E081E00E94A40347
S1130220811108C065E081E00E94A4038823D1F312
S1130230C5E0BFC066E081E00E94A403811108C04C
S113024066E081E00E94A4038823D1F3C2E0B1C038
S113025067E081E00E94A403C82F811107C067E012
S113026081E00E94A4038823D1F3A3C040E063E0AB
S113027083E00E94C40241E064E083E00E94C4027F
S113028041E063E083E00E94340340E064E083E003
S11302900E94340364E081E00E94A403811108C039
S11302A064E081E00E94A4038823D1F3C9E081C003
S11302B065E081E00E94A403811108C065E081E04B
S11302C00E94A4038823D1F3C6E073C066E081E0F2
S11302D00E94A403811108C066E081E00E94A40387
S11302E08823D1F3C3E065C067E081E00E94A403E2
S11302F0811108C067E081E00E94A4038823D1F340
S1130300CDE357C040E064E083E00E94C40241E0D2
S113031065E083E00E94C40241E064E083E00E945F
S1130320340340E065E083E00E94340364E081E04C
S11303300E94A403811108C064E081E00E94A40328
S11303408823D1F3CFE235C065E081E00E94A403A5
S1130350811108C065E081E00E94A4038823D1F3E1
S1130360CAE227C066E081E00E94A403811108C0AC
S113037066E081E00E94A4038823D1F3CDE219C092
S113038067E081E00E94A403811108C067E081E076
S11303900E94A4038823D1F3CBE20BC040E065E0C4
S11303A083E00E94C40241E065E083E00E943403DC
S11303B0CFCE8C2FCF9108950F931F93CF93DF93BC
S11303C000D000D0CDB7DEB7082F83E0898384E066
S11303D08A8385E08B8386E08C8310E014C0402FF1
S11303E050E0012E02C0559547950A94E2F74170FA
S11303F0E1E0F0E0EC0FFD1FE10FF11D608180E012
S11304000E9434031F5F143050F30F900F900F902D
S11304100F90DF91CF911F910F91089541E062E019
S113042080E00E9434038FE39FE10197F1F700C05D
S1130430000040E062E080E00E9434030895CF931E
S1130440C82F41E061E080E00E94340340E060E0B6
S113045080E00E9434038C2F82958F700E94DC010F
S11304600E940E028C2F0E94DC010E940E02CF918A
S11304700895CF93C82F40E061E080E00E943403E8
S113048040E060E080E00E9434038C2F82958F70FE
S11304900E94DC010E940E028C2F0E94DC010E944B
S11304A00E02CF9108952FEF83EF91E02150804009
S11304B09040E1F700C0000082E00E94DC010E944D
S11304C00E0282E00E94DC010E940E0288E00E947B
S11304D0DC010E940E028CE00E94390281E00E943D
S11304E03902089590E4699F800D112480680E9468
S11304F0390208951F93CF93DF93CDB7DEB72A97C0
S11305000FB6F894DEBF0FBECDBF6115710581052E
S11305109105D1F480E30E941F022CC02AE030E050
S113052040E050E00E94E203E1E0F0E0EC0FFD1F48
S1130530E10FF11D17FDFA95605D6083622F732F43
S1130540842F952F1F5F01C010E06115710581058F
S1130550910521F711500CC0E1E0F0E0EC0FFD1F14
S1130560E10FF11D17FDFA9580810E941F021150C1
S1130570112394F72A960FB6F894DEBF0FBECDBFB1
S1130580DF91CF911F9108954130A1F5813089F019
S113059028F08230C9F0833011F108952AB381E044
S11305A090E002C0880F991F6A95E2F7822B8ABBFC
S11305B0089527B381E090E002C0880F991F6A95DF
S11305C0E2F7822B87BB089524B381E090E002C058
S11305D0880F991F6A95E2F7822B84BB089521B393
S11305E081E090E002C0880F991F6A95E2F7822BA0
S11305F081BB0895411137C0813091F028F08230D9
S1130600D9F0833029F108952AB381E090E002C043
S1130610880F991F6A95E2F7809582238ABB089513
S113062027B381E090E002C0880F991F6A95E2F732
S11306308095822387BB089524B381E090E002C0B3
S1130640880F991F6A95E2F78095822384BB0895E9
S113065021B381E090E002C0880F991F6A95E2F708
S11306608095822381BB08954130A1F5813089F0C2
S113067028F08230C9F0833011F108952BB381E062
S113068090E002C0880F991F6A95E2F7822B8BBB1A
S1130690089528B381E090E002C0880F991F6A95FD
S11306A0E2F7822B88BB089525B381E090E002C075
S11306B0880F991F6A95E2F7822B85BB089522B3B0
S11306C081E090E002C0880F991F6A95E2F7822BBF
S11306D082BB0895411137C0813091F028F08230F7
S11306E0D9F0833029F108952BB381E090E002C062
S11306F0880F991F6A95E2F7809582238BBB089532
S113070028B381E090E002C0880F991F6A95E2F750
S11307108095822388BB089525B381E090E002C0D0
S1130720880F991F6A95E2F78095822385BB089507
S113073022B381E090E002C0880F991F6A95E2F726
S11307408095822382BB0895813079F028F082302D
S1130750A9F08330E1F024C089B390E002C09595FC
S113076087956A95E2F78170089586B390E002C098
S1130770959587956A95E2F78170089583B390E023
S113078002C0959587956A95E2F78170089580B3C4
S113079090E002C0959587956A95E2F78170089577
S11307A080E00895813041F028F0823039F08330C0
S11307B039F008956ABB089567BB089564BB089532
S11307C061BB0895A1E21A2EAA1BBB1BFD010DC03B
S11307D0AA1FBB1FEE1FFF1FA217B307E407F507ED
S11307E020F0A21BB30BE40BF50B661F771F881FC9
S11307F0991F1A9469F760957095809590959B015F
S10F0800AC01BD01CF010895F894FFCFB6
S9030000FC
