:100000000C942A000C943F000C943F000C943F0089
:100010000C943F000C943F000C943F000C943F0064
:100020000C943F000C943F000C943F000C943F0054
:100030000C943F000C943F000C943F000C943F0044
:100040000C943F000C943F000C943F000C943F0034
:100050000C943F0011241FBECFE5D8E0DEBFCDBF1A
:1000600010E0A0E6B0E0E4E7F2E002C005900D92F7
:10007000A236B107D9F70E9441000C9438010C94C4
:1000800000008AB38E7F8ABB84B3816084BB84B353
:10009000826084BB84B3846084BB84B3886084BB87
:1000A00084B3806184BB84B3806284BB84B3806486
:1000B00084BB84B3806884BBC89967C080916000AA
:1000C000813009F062C01092600085B3816085BB09
:1000D0002FE78AE196E0215080409040E1F700C090
:1000E000000085B3826085BB2FE78AE196E021504E
:1000F00080409040E1F700C0000085B3846085BB7C
:100100002FE78AE196E0215080409040E1F700C05F
:10011000000085B3886085BB2FE78AE196E0215017
:1001200080409040E1F700C0000085B3806185BB4E
:100130002FE78AE196E0215080409040E1F700C02F
:10014000000085B3806285BB2FE78AE196E02150ED
:1001500080409040E1F700C0000085B3806485BB1B
:100160002FE78AE196E0215080409040E1F700C0FF
:10017000000085B3806885BB2FE78AE196E02150B7
:1001800080409040E1F700C00000C89967C08091AE
:100190006000811163C081E08093600085B38F7738
:1001A00085BB2FE78AE196E0215080409040E1F73F
:1001B00000C0000085B38F7B85BB2FE78AE196E006
:1001C000215080409040E1F700C0000085B38F7D52
:1001D00085BB2FE78AE196E0215080409040E1F70F
:1001E00000C0000085B38F7E85BB2FE78AE196E0D3
:1001F000215080409040E1F700C0000085B3877F28
:1002000085BB2FE78AE196E0215080409040E1F7DE
:1002100000C0000085B38B7F85BB2FE78AE196E0A5
:10022000215080409040E1F700C0000085B38D7FF1
:1002300085BB2FE78AE196E0215080409040E1F7AE
:1002400000C0000085B38E7F85BB2FE78AE196E072
:10025000215080409040E1F700C000002FE38DE086
:1002600093E0215080409040E1F700C0000024CF8F
:04027000F894FFCF30
:02027400010087
:00000001FF
