S01700004763634170706C69636174696F6E332E7372656359
S11300000C942A000C9434000C9434000C943400A6
S11300100C9434000C9434000C9434000C9434008C
S11300200C9434000C9434000C9434000C9434007C
S11300300C9434000C9434000C9434000C9434006C
S11300400C9434000C9434000C9434000C9434005C
S11300500C94340011241FBECFE5D8E0DEBFCDBF21
S11300600E9436000C944B000C94000084B3816011
S113007084BB81B38B7F81BB81B3877F81BB829932
S113008004C085B3816085BBFACF8399F8CF85B36B
S10D00908E7F85BBF4CFF894FFCFF8
S9030000FC
