:100000000C942A000C943F000C943F000C943F0089
:100010000C943F000C943F000C943F000C943F0064
:100020000C943F000C943F000C943F000C943F0054
:100030000C943F000C943F000C943F000C943F0044
:100040000C943F000C943F000C943F000C943F0034
:100050000C943F0011241FBECFE5D8E0DEBFCDBF1A
:1000600010E0A0E6B0E0E6EFF3E002C005900D92EC
:10007000A836B107D9F70E9441000C94F9010C94FD
:1000800000006FEF80E00E94C7010E94D90080E26B
:100090000E94A10080E20E94A10080E20E94A100D3
:1000A00080E20E94A10080E690E00E94EC0063E6FE
:1000B00070E080E090E00E94F900FFCF0F931F9363
:1000C000CF93DF9300D000D0CDB7DEB7082F83E009
:1000D000898384E08A8385E08B8386E08C8310E0CB
:1000E00014C0402F50E0012E02C0559547950A9448
:1000F000E2F74170E1E0F0E0EC0FFD1FE10FF11DD0
:10010000608180E00E9447011F5F143050F30F9020
:100110000F900F900F90DF91CF911F910F91089545
:1001200041E062E080E00E9447018FE39FE1019798
:10013000F1F700C0000040E062E080E00E9447016B
:100140000895CF93C82F41E061E080E00E9447010D
:1001500040E060E080E00E9447016C2F80E00E9458
:10016000B7018C2F82958F700E945E000E949000D4
:100170008C2F0E945E000E949000CF910895CF9333
:10018000C82F40E061E080E00E94470140E060E06D
:1001900080E00E9447018C2F82958F700E945E0044
:1001A0000E9490008C2F0E945E000E949000CF91D0
:1001B00008952FEF83EF91E0215080409040E1F7C8
:1001C00000C0000088E30E94BF008CE00E94BF00D6
:1001D00081E00E94BF000895CF93DF93EC0103C03C
:1001E0000E94A100219688818111FACFDF91CF91E1
:1001F00008951F93CF93DF93CDB7DEB764970FB603
:10020000F894DEBF0FBECDBF611571058105910564
:1002100021F480E30E94A10030C0611571058105C1
:100220009105A1F42AC02AE030E040E050E00E94AD
:10023000D701E1E0F0E0EC0FFD1FE10FF11D60835D
:10024000622F732F842F952F1F5F01C010E061155F
:1002500071058105910539F711500DC0E1E0F0E01D
:10026000EC0FFD1FE10FF11D17FDFA958081805DF8
:100270000E94A100115011238CF764960FB6F894D8
:10028000DEBF0FBECDBFDF91CF911F9108954130EA
:10029000A1F5813089F028F08230C9F0833011F166
:1002A00008952BB381E090E002C0880F991F6A95F2
:1002B000E2F7822B8BBB089528B381E090E002C067
:1002C000880F991F6A95E2F7822B88BB089525B3A2
:1002D00081E090E002C0880F991F6A95E2F7822BB7
:1002E00085BB089522B381E090E002C0880F991F7A
:1002F0006A95E2F7822B82BB0895411137C08130A5
:1003000091F028F08230D9F0833029F108952BB391
:1003100081E090E002C0880F991F6A95E2F780950E
:1003200082238BBB089528B381E090E002C0880F40
:10033000991F6A95E2F78095822388BB089525B3BB
:1003400081E090E002C0880F991F6A95E2F78095DE
:10035000822385BB089522B381E090E002C0880F1C
:10036000991F6A95E2F78095822382BB08958130B8
:1003700041F028F0823039F0833039F008956BBBBA
:10038000089568BB089565BB089562BB08958130E8
:1003900041F028F0823039F0833039F008956ABB9B
:1003A000089567BB089564BB089561BB0895A1E2F9
:1003B0001A2EAA1BBB1BFD010DC0AA1FBB1FEE1FDF
:1003C000FF1FA217B307E407F50720F0A21BB30B2A
:1003D000E40BF50B661F771F881F991F1A9469F7A6
:1003E00060957095809590959B01AC01BD01CF0102
:0603F0000895F894FFCF10
:0803F600594F55534546000024
:00000001FF
