S01200004C45445F4472697665722E7372656372
S11300000C942A000C9434000C9434000C943400A6
S11300100C9434000C9434000C9434000C9434008C
S11300200C9434000C9434000C9434000C9434007C
S11300300C9434000C9434000C9434000C9434006C
S11300400C9434000C9434000C9434000C9434005C
S11300500C94340011241FBECFE5D8E0DEBFCDBF21
S11300600E9436000C948F010C94000041E060E083
S113007082E00E947B0060E082E00E9470002FEF2B
S11300808FE097E2215080409040E1F700C00000EB
S113009060E082E00E9474002FEF8FE097E221502D
S11300A080409040E1F700C0000060E082E00E94E0
S11300B078002FEF8FE097E2215080409040E1F7E5
S11300C000C0000060E082E00E9478002FEF8FE023
S11300D097E2215080409040E1F700C00000CBCF70
S11300E041E00E94EB00089540E00E94EB00089577
S11300F00E945B0108954130A1F5813089F028F018
S11301008230C9F0833011F108952AB381E090E080
S113011002C0880F991F6A95E2F7822B8ABB089563
S113012027B381E090E002C0880F991F6A95E2F737
S1130130822B87BB089524B381E090E002C0880F2E
S1130140991F6A95E2F7822B84BB089521B381E05D
S113015090E002C0880F991F6A95E2F7822B81BB59
S11301600895411137C0813091F028F08230D9F0E0
S1130170833029F108952AB381E090E002C0880F0A
S1130180991F6A95E2F7809582238ABB089527B365
S113019081E090E002C0880F991F6A95E2F780958C
S11301A0822387BB089524B381E090E002C0880FC6
S11301B0991F6A95E2F78095822384BB089521B341
S11301C081E090E002C0880F991F6A95E2F780955C
S11301D0822381BB08954130A1F5813089F028F054
S11301E08230C9F0833011F108952BB381E090E09F
S11301F002C0880F991F6A95E2F7822B8BBB089582
S113020028B381E090E002C0880F991F6A95E2F755
S1130210822B88BB089525B381E090E002C0880F4B
S1130220991F6A95E2F7822B85BB089522B381E07A
S113023090E002C0880F991F6A95E2F7822B82BB77
S11302400895411137C0813091F028F08230D9F0FF
S1130250833029F108952BB381E090E002C0880F28
S1130260991F6A95E2F7809582238BBB089528B382
S113027081E090E002C0880F991F6A95E2F78095AB
S1130280822388BB089525B381E090E002C0880FE3
S1130290991F6A95E2F78095822385BB089522B35E
S11302A081E090E002C0880F991F6A95E2F780957B
S11302B0822382BB0895813089F028F08230C9F00E
S11302C0833011F108952BB381E090E002C0880FD0
S11302D0991F6A95E2F782278BBB089528B381E0C2
S11302E090E002C0880F991F6A95E2F7822788BBC5
S11302F0089525B381E090E002C0880F991F6A95A4
S1130300E2F7822785BB089522B381E090E002C022
S1130310880F991F6A95E2F7822782BB0895F894A3
S1050320FFCF09
S9030000FC
