S01200004C45445F4472697665722E7372656372
S11300000C942A000C9434000C9434000C943400A6
S11300100C9434000C9434000C9434000C9434008C
S11300200C9434000C9434000C9434000C9434007C
S11300300C9434000C9434000C9434000C9434006C
S11300400C9434000C9434000C9434000C9434005C
S11300500C94340011241FBECFE5D8E0DEBFCDBF21
S11300600E9436000C94B0010C94000041E060E062
S113007082E00E949C0060E082E00E9470002FEF0A
S11300808FE097E2215080409040E1F700C00000EB
S113009060E082E00E947F002FEF8FE097E2215022
S11300A080409040E1F700C0000060E082E00E94E0
S11300B08E002FEF8FE097E2215080409040E1F7CF
S11300C000C0000060E082E00E948E002FEF8FE00D
S11300D097E2215080409040E1F700C00000CBCF70
S11300E0CF93DF93C82FD62F41E00E949C0041E0BC
S11300F06D2F8C2F0E940C01DF91CF910895CF9327
S1130100DF93C82FD62F41E00E949C0040E06D2F62
S11301108C2F0E940C01DF91CF910895CF93DF9330
S1130120C82FD62F41E00E949C006D2F8C2F0E9477
S11301307C01DF91CF9108954130A1F5813089F0A0
S113014028F08230C9F0833011F108952AB381E098
S113015090E002C0880F991F6A95E2F7822B8ABB50
S1130160089527B381E090E002C0880F991F6A9533
S1130170E2F7822B87BB089524B381E090E002C0AC
S1130180880F991F6A95E2F7822B84BB089521B3E7
S113019081E090E002C0880F991F6A95E2F7822BF4
S11301A081BB0895411137C0813091F028F082302D
S11301B0D9F0833029F108952AB381E090E002C098
S11301C0880F991F6A95E2F7809582238ABB089568
S11301D027B381E090E002C0880F991F6A95E2F787
S11301E08095822387BB089524B381E090E002C008
S11301F0880F991F6A95E2F78095822384BB08953E
S113020021B381E090E002C0880F991F6A95E2F75C
S11302108095822381BB08954130A1F5813089F016
S113022028F08230C9F0833011F108952BB381E0B6
S113023090E002C0880F991F6A95E2F7822B8BBB6E
S1130240089528B381E090E002C0880F991F6A9551
S1130250E2F7822B88BB089525B381E090E002C0C9
S1130260880F991F6A95E2F7822B85BB089522B304
S113027081E090E002C0880F991F6A95E2F7822B13
S113028082BB0895411137C0813091F028F082304B
S1130290D9F0833029F108952BB381E090E002C0B6
S11302A0880F991F6A95E2F7809582238BBB089586
S11302B028B381E090E002C0880F991F6A95E2F7A5
S11302C08095822388BB089525B381E090E002C025
S11302D0880F991F6A95E2F78095822385BB08955C
S11302E022B381E090E002C0880F991F6A95E2F77B
S11302F08095822382BB0895813089F028F0823072
S1130300C9F0833011F108952BB381E090E002C06D
S1130310880F991F6A95E2F782278BBB089528B34B
S113032081E090E002C0880F991F6A95E2F7822766
S113033088BB089525B381E090E002C0880F991F1F
S11303406A95E2F7822785BB089522B381E090E0A5
S113035002C0880F991F6A95E2F7822782BB08952D
S1070360F894FFCF3B
S9030000FC
