:100000000C9434000C943E000C943E000C943E0082
:100010000C943E000C943E000C943E000C943E0068
:100020000C943E000C943E000C943E000C943E0058
:100030000C943E000C943E000C943E000C943E0048
:100040000C943E000C943E000C943E000C943E0038
:100050000C943E00F30017013B015F018301A701EF
:10006000CB01EF011302370211241FBECFE5D8E008
:10007000DEBFCDBF0E9440000C94D0040C94000061
:10008000CF93DF9341E060E082E00E945B0241E0B9
:1000900061E082E00E945B0241E062E082E00E9457
:1000A0005B0261E080E00E94690340E062E083E07F
:1000B0000E945B0240E063E083E00E945B0291E00B
:1000C000D92F62E083E00E943B038111FACF60E008
:1000D00082E00E94E10061E082E00E94E50062E0CF
:1000E00082E00E94E500C9E013C063E083E00E9463
:1000F0003B03882381F08C2F0E94E9002FEF84E3DB
:100100009CE0215080409040E1F700C00000C150C9
:10011000CC235CF701C0D0E0DD2309F44DC060E0E2
:1001200082E00E94E50061E082E00E94E10062E07E
:1001300082E00E94E500C9E013C063E083E00E9412
:100140003B03882381F08C2F0E94E9002FEF84E38A
:100150009CE0215080409040E1F700C00000C15079
:10016000CC235CF701C0D0E0DD2331F160E082E018
:100170000E94E50061E082E00E94E50062E082E02A
:100180000E94E100C9E015C063E083E00E943B03E8
:1001900090E0882309F494CF8C2F0E94E9002FEF80
:1001A00084E39CE0215080409040E1F700C00000D3
:1001B000C150CC234CF785CF80E090E0DF91CF9108
:1001C000089541E00E94CB02089540E00E94CB02D6
:1001D000089590E08A30910508F06CC1FC01E65D5D
:1001E000FF4F0C94CA0441E061E080E00E94CB0222
:1001F00041E062E080E00E94CB0241E063E080E009
:100200000E94CB0241E064E080E00E94CB0241E02A
:1002100065E080E00E94CB0241E066E080E00E9461
:10022000CB0240E067E080E00E94CB02089540E00E
:1002300061E080E00E94CB0241E062E080E00E9449
:10024000CB0241E063E080E00E94CB0240E064E04A
:1002500080E00E94CB0240E065E080E00E94CB029B
:1002600040E066E080E00E94CB0240E067E080E092
:100270000E94CB02089541E061E080E00E94CB0241
:1002800041E062E080E00E94CB0240E063E080E079
:100290000E94CB0241E064E080E00E94CB0241E09A
:1002A00065E080E00E94CB0240E066E080E00E94D2
:1002B000CB0241E067E080E00E94CB02089541E07C
:1002C00061E080E00E94CB0241E062E080E00E94B9
:1002D000CB0241E063E080E00E94CB0241E064E0B9
:1002E00080E00E94CB0240E065E080E00E94CB020B
:1002F00040E066E080E00E94CB0241E067E080E001
:100300000E94CB02089540E061E080E00E94CB02B1
:1003100041E062E080E00E94CB0241E063E080E0E7
:100320000E94CB0240E064E080E00E94CB0240E00B
:1003300065E080E00E94CB0241E066E080E00E9440
:10034000CB0241E067E080E00E94CB02089541E0EB
:1003500061E080E00E94CB0240E062E080E00E9429
:10036000CB0241E063E080E00E94CB0241E064E028
:1003700080E00E94CB0240E065E080E00E94CB027A
:1003800041E066E080E00E94CB0241E067E080E06F
:100390000E94CB02089541E061E080E00E94CB0220
:1003A00040E062E080E00E94CB0241E063E080E058
:1003B0000E94CB0241E064E080E00E94CB0241E079
:1003C00065E080E00E94CB0241E066E080E00E94B0
:1003D000CB0241E067E080E00E94CB02089541E05B
:1003E00061E080E00E94CB0241E062E080E00E9498
:1003F000CB0241E063E080E00E94CB0240E064E099
:1004000080E00E94CB0240E065E080E00E94CB02E9
:1004100040E066E080E00E94CB0240E067E080E0E0
:100420000E94CB02089541E061E080E00E94CB028F
:1004300041E062E080E00E94CB0241E063E080E0C6
:100440000E94CB0241E064E080E00E94CB0241E0E8
:1004500065E080E00E94CB0241E066E080E00E941F
:10046000CB0241E067E080E00E94CB02089541E0CA
:1004700061E080E00E94CB0241E062E080E00E9407
:10048000CB0241E063E080E00E94CB0241E064E007
:1004900080E00E94CB0240E065E080E00E94CB0259
:1004A00041E066E080E00E94CB0241E067E080E04E
:1004B0000E94CB0208954130A1F5813089F028F0E7
:1004C0008230C9F0833011F108952AB381E090E0C1
:1004D00002C0880F991F6A95E2F7822B8ABB0895A4
:1004E00027B381E090E002C0880F991F6A95E2F778
:1004F000822B87BB089524B381E090E002C0880F6F
:10050000991F6A95E2F7822B84BB089521B381E09D
:1005100090E002C0880F991F6A95E2F7822B81BB99
:100520000895411137C0813091F028F08230D9F020
:10053000833029F108952AB381E090E002C0880F4A
:10054000991F6A95E2F7809582238ABB089527B3A5
:1005500081E090E002C0880F991F6A95E2F78095CC
:10056000822387BB089524B381E090E002C0880F06
:10057000991F6A95E2F78095822384BB089521B381
:1005800081E090E002C0880F991F6A95E2F780959C
:10059000822381BB08954130A1F5813089F028F094
:1005A0008230C9F0833011F108952BB381E090E0DF
:1005B00002C0880F991F6A95E2F7822B8BBB0895C2
:1005C00028B381E090E002C0880F991F6A95E2F796
:1005D000822B88BB089525B381E090E002C0880F8C
:1005E000991F6A95E2F7822B85BB089522B381E0BB
:1005F00090E002C0880F991F6A95E2F7822B82BBB8
:100600000895411137C0813091F028F08230D9F03F
:10061000833029F108952BB381E090E002C0880F68
:10062000991F6A95E2F7809582238BBB089528B3C2
:1006300081E090E002C0880F991F6A95E2F78095EB
:10064000822388BB089525B381E090E002C0880F23
:10065000991F6A95E2F78095822385BB089522B39E
:1006600081E090E002C0880F991F6A95E2F78095BB
:10067000822382BB0895813079F028F08230A9F07E
:100680008330E1F024C089B390E002C0959587954E
:100690006A95E2F78170089586B390E002C095955F
:1006A00087956A95E2F78170089583B390E002C060
:1006B000959587956A95E2F78170089580B390E0EB
:1006C00002C0959587956A95E2F78170089580E05C
:1006D0000895613009F0AEC0813089F138F0823080
:1006E00009F456C0833009F47CC0089541E060E00D
:1006F00080E00E945B0241E061E080E00E945B02DA
:1007000041E062E080E00E945B0241E063E080E063
:100710000E945B0241E064E080E00E945B0241E0F5
:1007200065E080E00E945B0241E066E080E00E94BC
:100730005B0241E067E080E00E945B02089541E0D7
:1007400060E081E00E945B0241E061E081E00E94A4
:100750005B0241E062E081E00E945B0241E063E015
:1007600081E00E945B0241E064E081E00E945B0264
:1007700041E065E081E00E945B0241E066E081E0EB
:100780000E945B0241E067E081E00E945B02089505
:1007900041E060E082E00E945B0241E061E082E0D3
:1007A0000E945B0241E062E082E00E945B0241E065
:1007B00063E082E00E945B0241E064E082E00E942C
:1007C0005B0241E065E082E00E945B0241E066E09E
:1007D00082E00E945B0241E067E082E00E945B02EF
:1007E000089541E060E083E00E945B0241E061E047
:1007F00083E00E945B0241E062E083E00E945B02D2
:1008000041E063E083E00E945B0241E064E083E05A
:100810000E945B0241E065E083E00E945B0241E0F0
:1008200066E083E00E945B0241E067E083E00E94B3
:100830005B0208956111ADC0813089F138F08230DA
:1008400009F456C0833009F47CC0089540E060E0AC
:1008500080E00E945B0240E061E080E00E945B0279
:1008600040E062E080E00E945B0240E063E080E004
:100870000E945B0240E064E080E00E945B0240E096
:1008800065E080E00E945B0240E066E080E00E945C
:100890005B0240E067E080E00E945B02089540E078
:1008A00060E081E00E945B0240E061E081E00E9444
:1008B0005B0240E062E081E00E945B0240E063E0B6
:1008C00081E00E945B0240E064E081E00E945B0204
:1008D00040E065E081E00E945B0240E066E081E08C
:1008E0000E945B0240E067E081E00E945B020895A5
:1008F00040E060E082E00E945B0240E061E082E074
:100900000E945B0240E062E082E00E945B0240E005
:1009100063E082E00E945B0240E064E082E00E94CB
:100920005B0240E065E082E00E945B0240E066E03E
:1009300082E00E945B0240E067E082E00E945B028E
:10094000089540E060E083E00E945B0240E061E0E7
:1009500083E00E945B0240E062E083E00E945B0271
:1009600040E063E083E00E945B0240E064E083E0FB
:100970000E945B0240E065E083E00E945B0240E091
:1009800066E083E00E945B0240E067E083E00E9453
:100990005B020895EE0FFF1F0590F491E02D09947E
:0409A000F894FFCFF9
:00000001FF
