:100000000C942A000C9434000C9434000C943400AA
:100010000C9434000C9434000C9434000C94340090
:100020000C9434000C9434000C9434000C94340080
:100030000C9434000C9434000C9434000C94340070
:100040000C9434000C9434000C9434000C94340060
:100050000C94340011241FBECFE5D8E0DEBFCDBF25
:100060000E9452000C945C040C9400004B3259F036
:1000700018F44A3261F00FC04D3239F04F3259F462
:100080000E942E040895860F0895861B0895869F6A
:10009000802D1124089580E008950E94F3008F3F81
:1000A000E1F308956FEF80E00E941E040E94A20019
:1000B0000E949F020E944D00C82F60E080E00E94D5
:1000C000BE026C2F70E080E090E00E94C6020E94A9
:1000D0004D00182F60E081E00E94BE02812F0E9437
:1000E0006B020E944D00D82F60E082E00E94BE02A9
:1000F0006D2F70E080E090E00E94C6020E944D00EB
:100100008D33B9F4412F6D2F8C2F0E943600C82FEC
:1001100060E083E00E94BE028DE30E946B0260E01B
:1001200084E00E94BE026C2F70E080E090E00E94AC
:10013000C6020E944D00833609F0BCCF81E00E94C8
:100140008502B8CF40E064E081E00E94100340E007
:1001500065E081E00E94100340E066E081E00E94DB
:10016000100340E067E081E00E94100341E064E09A
:1001700081E00E94800341E065E081E00E9480030D
:1001800041E066E081E00E94800341E067E081E0B9
:100190000E94800340E062E083E00E94100340E0A0
:1001A00063E083E00E94100340E064E083E00E948B
:1001B000100340E065E083E00E94100341E062E04C
:1001C00083E00E94800341E063E083E00E948003BB
:1001D00041E064E083E00E94800341E065E083E069
:1001E0000E9480030895CF9341E062E083E00E9483
:1001F000100340E062E083E00E94800364E081E05D
:100200000E94F003811108C064E081E00E94F003C5
:100210008823D1F3C7E019C165E081E00E94F003B3
:10022000811108C065E081E00E94F0038823D1F3CA
:10023000C4E00BC166E081E00E94F003811108C0B8
:1002400066E081E00E94F0038823D1F3C1E0FDC0A5
:1002500067E081E00E94F003811108C067E081E05F
:100260000E94F0038823D1F3C3E6EFC040E062E0D0
:1002700083E00E94100341E063E083E00E941003EA
:1002800041E062E083E00E94800340E063E083E0BD
:100290000E94800364E081E00E94F003811108C0A5
:1002A00064E081E00E94F0038823D1F3C8E0CDC070
:1002B00065E081E00E94F003811108C065E081E003
:1002C0000E94F0038823D1F3C5E0BFC066E081E05F
:1002D0000E94F003811108C066E081E00E94F003F3
:1002E0008823D1F3C2E0B1C067E081E00E94F0034F
:1002F000C82F811107C067E081E00E94F0038823C6
:10030000D1F3A3C040E063E083E00E94100341E02A
:1003100064E083E00E94100341E063E083E00E9418
:10032000800340E064E083E00E94800364E081E0B9
:100330000E94F003811108C064E081E00E94F00394
:100340008823D1F3C9E081C065E081E00E94F00319
:10035000811108C065E081E00E94F0038823D1F399
:10036000C6E073C066E081E00E94F003811108C01E
:1003700066E081E00E94F0038823D1F3C3E065C00A
:1003800067E081E00E94F003811108C067E081E02E
:100390000E94F0038823D1F3CDE357C040E064E02E
:1003A00083E00E94100341E065E083E00E941003B7
:1003B00041E064E083E00E94800340E065E083E088
:1003C0000E94800364E081E00E94F003811108C074
:1003D00064E081E00E94F0038823D1F3CFE235C0CE
:1003E00065E081E00E94F003811108C065E081E0D2
:1003F0000E94F0038823D1F3CAE227C066E081E0BF
:100400000E94F003811108C066E081E00E94F003C1
:100410008823D1F3CDE219C067E081E00E94F003A8
:10042000811108C067E081E00E94F0038823D1F3C6
:10043000CBE20BC040E065E083E00E94100341E0A6
:1004400065E083E00E948003CFCE8C2FCF9108958A
:100450000F931F93CF93DF9300D000D0CDB7DEB7BB
:10046000082F83E0898384E08A8385E08B8386E09C
:100470008C8310E014C0402F50E0012E02C055952F
:1004800047950A94E2F74170E1E0F0E0EC0FFD1FC0
:10049000E10FF11D608180E00E9480031F5F143036
:1004A00050F30F900F900F900F90DF91CF911F910D
:1004B0000F91089541E062E080E00E9480038FE3A5
:1004C0009FE10197F1F700C0000040E062E080E0AA
:1004D0000E9480030895CF93C82F41E061E080E03F
:1004E0000E94800340E060E080E00E9480038C2F47
:1004F00082958F700E9428020E945A028C2F0E94BF
:1005000028020E945A02CF910895CF93C82F40E04D
:1005100061E080E00E94800340E060E080E00E94B3
:1005200080038C2F82958F700E9428020E945A02AD
:100530008C2F0E9428020E945A02CF9108952FEF1B
:1005400083EF91E0215080409040E1F700C000002F
:1005500082E00E9428020E945A0282E00E94280241
:100560000E945A0288E00E9428020E945A028CE0EF
:100570000E94850281E00E948502089590E4699FAF
:10058000800D112480680E94850208951F93CF93E7
:10059000DF93CDB7DEB72A970FB6F894DEBF0FBE54
:1005A000CDBF6115710581059105D1F480E30E94ED
:1005B0006B022CC02AE030E040E050E00E943A0498
:1005C000E1E0F0E0EC0FFD1FE10FF11D17FDFA95E2
:1005D000605D6083622F732F842F952F1F5F01C092
:1005E00010E0611571058105910521F711500CC0CE
:1005F000E1E0F0E0EC0FFD1FE10FF11D17FDFA95B2
:1006000080810E946B021150112394F72A960FB635
:10061000F894DEBF0FBECDBFDF91CF911F9108953B
:100620004130A1F5813089F028F08230C9F0833063
:1006300011F108952AB381E090E002C0880F991F5C
:100640006A95E2F7822B8ABB089527B381E090E098
:1006500002C0880F991F6A95E2F7822B87BB089525
:1006600024B381E090E002C0880F991F6A95E2F7F9
:10067000822B84BB089521B381E090E002C0880FF3
:10068000991F6A95E2F7822B81BB0895411137C00B
:10069000813091F028F08230D9F0833029F108952B
:1006A0002AB381E090E002C0880F991F6A95E2F7B3
:1006B000809582238ABB089527B381E090E002C031
:1006C000880F991F6A95E2F78095822387BB08956A
:1006D00024B381E090E002C0880F991F6A95E2F789
:1006E0008095822384BB089521B381E090E002C00D
:1006F000880F991F6A95E2F78095822381BB089540
:100700004130A1F5813089F028F08230C9F0833082
:1007100011F108952BB381E090E002C0880F991F7A
:100720006A95E2F7822B8BBB089528B381E090E0B5
:1007300002C0880F991F6A95E2F7822B88BB089543
:1007400025B381E090E002C0880F991F6A95E2F717
:10075000822B85BB089522B381E090E002C0880F10
:10076000991F6A95E2F7822B82BB0895411137C029
:10077000813091F028F08230D9F0833029F108954A
:100780002BB381E090E002C0880F991F6A95E2F7D1
:10079000809582238BBB089528B381E090E002C04E
:1007A000880F991F6A95E2F78095822388BB089588
:1007B00025B381E090E002C0880F991F6A95E2F7A7
:1007C0008095822385BB089522B381E090E002C02A
:1007D000880F991F6A95E2F78095822382BB08955E
:1007E000813079F028F08230A9F08330E1F024C024
:1007F00089B390E002C0959587956A95E2F781707C
:10080000089586B390E002C0959587956A95E2F7C2
:100810008170089583B390E002C0959587956A959D
:10082000E2F78170089580B390E002C095958795B6
:100830006A95E2F78170089580E00895813041F073
:1008400028F0823039F0833039F008956ABB08957A
:1008500067BB089564BB089561BB0895991B79E057
:1008600004C0991F961708F0961B881F7A95C9F740
:1008700080950895A1E21A2EAA1BBB1BFD010DC095
:10088000AA1FBB1FEE1FFF1FA217B307E407F50740
:1008900020F0A21BB30BE40BF50B661F771F881F1C
:1008A000991F1A9469F760957095809590959B01B2
:0C08B000AC01BD01CF010895F894FFCF0A
:00000001FF
