S00C00004C6564732E7372656390
S11300000C942A000C943C000C943C000C943C008E
S11300100C943C000C943C000C943C000C943C006C
S11300200C943C000C943C000C943C000C943C005C
S11300300C943C000C943C000C943C000C943C004C
S11300400C943C000C943C000C943C000C943C003C
S11300500C943C0011241FBECFE5D8E0DEBFCDBF19
S113006020E0A0E6B0E001C01D92A136B207E1F79E
S11300700E943E000C9467000C94000084B38160DD
S113008084BB84B3826084BB84B3846084BB8AB33E
S11300908E7F8ABBC899FECF25B381E090E00090A3
S11300A0600002C0880F991F0A94E2F7822B85BB77
S11300B02FEB8CE595E1215080409040E1F700C0A2
S11300C00000809160008F5F80936000E3CFF8941C
S10500D0FFCF5C
S9030000FC
