:100000000C942A000C9447000C9447000C9435067D
:100010000C9447000C9447000C9447000C94470044
:100020000C9447000C9447000C9447000C94470034
:100030000C9447000C9447000C9447000C94470024
:100040000C9447000C9447000C9447000C94470014
:100050000C94470011241FBECFE5D8E0DEBFCDBF12
:1000600010E0A0E6B0E0E8E6F0E102C005900D92F5
:10007000A63DB107D9F720E0A6EDB0E001C01D9282
:10008000A13EB207E1F70E947D000C9432080C9467
:100090000000BC0190E014C0292F30E0FB01E20F0A
:1000A000F31F4081F901E659FF4F2081421304C03C
:1000B0001092D6009F5F04C081E08093D60002C0FA
:1000C000943050F38091D600089561E082E00E9460
:1000D000860462E082E00E94860463E082E00E947F
:1000E000860481E00E94D90360E080E00E9425043C
:1000F00080E690E00E941204F7CF0E945C0662E066
:1001000083E00E94D1050E942C0685E690E00E94C3
:1001100030066EE780E00E94C1050E94F3030E9452
:10012000F6010E94950440E060E083E00E94B30481
:1001300041E060E083E00E94230560E083E00E94EC
:1001400093058111FACF60E083E00E949305882334
:10015000D1F361E082E00E947704C0E02CC060E04F
:1001600080E00E9425048EE690E00E9412040C2F8D
:1001700010E00E94470205521F4FF801808361E0A2
:100180008C2F0E942504F801608170E080E090E0EF
:100190000E942D04FFEF21EE84E0F15020408040CA
:1001A000E1F700C0000061E08C2F0E9425048AE284
:1001B0000E94BF03CF5FC43090F28BED90E00E94AD
:1001C0004900811102C181E00E94D90360E080E012
:1001D0000E9425048FE790E00E94120462E082E012
:1001E0000E9477049FEFE9E6F8E19150E040F0408B
:1001F000E1F700C0000062E082E00E94860481E036
:100200000E94D90387E00E94A5049093DA008093AE
:10021000D90080E00E94A5049C018091D9009091B2
:10022000DA00AC01440F551F440F551F840F951F72
:100230006FEF73E00E94FC077093DA006093D900BF
:10024000B90180E090E00E94010720E030E040EA40
:1002500050E40E948F0720E030EC4FE754E40E9406
:1002600060062AE037ED43E25CE30E9460060E94EC
:10027000D2067093D8006093D7006333710508F0FD
:1002800046C053C081E00E94D90363E082E00E942F
:1002900086042FEF85EA9EE0215080409040E1F7F0
:1002A00000C0000060E080E00E94250485E990E045
:1002B0000E94120463E082E00E947704EFEFFBE407
:1002C0002DE1E150F0402040E1F700C0000080E067
:1002D0000E94A504BC0180E090E00E94010720E09C
:1002E00030E040EA50E40E948F0720E030EC4FE716
:1002F00054E40E9460062AE037ED43E25CE30E948A
:1003000060060E94D2067093D8006093D700809157
:10031000D7009091D800C39708F0B4CF81E00E9435
:10032000D90363E082E00E9486048091D900909115
:10033000DA00049728F160E080E00E94250488EA52
:1003400090E00E94120460E08DE00E94250460911C
:10035000D7007091D80080E090E00E942D0460E00A
:1003600084E10E94250486EB90E00E94120460E084
:100370008BE10E9425048EEB90E00E94120442CF94
:1003800060E080E00E94250488EA90E00E94120468
:1003900060E08DE00E9425046091D7007091D80044
:1003A00080E090E00E942D0460E084E10E9425043A
:1003B00086EB90E00E94120460E08BE10E9425042D
:1003C00084EC90E00E9412041DCF81E00E94D903CA
:1003D0008AEC90E00E9412048FEF99E6E8E18150E8
:1003E0009040E040E1F700C00000B7CE40E064E09C
:1003F00081E00E94B30440E065E081E00E94B30424
:1004000040E066E081E00E94B30440E067E081E004
:100410000E94B30441E064E081E00E94230541E0D2
:1004200065E081E00E94230541E066E081E00E94F2
:10043000230541E067E081E00E94230540E062E09F
:1004400083E00E94B30440E063E083E00E94B304D1
:1004500040E064E083E00E94B30440E065E083E0B4
:100460000E94B30441E062E083E00E94230541E082
:1004700063E083E00E94230541E064E083E00E94A2
:10048000230541E065E083E00E9423050895CF93B2
:1004900041E062E083E00E94B30440E062E083E078
:1004A0000E94230564E081E00E949305811108C049
:1004B00064E081E00E9493058823D1F3C7E019C16D
:1004C00065E081E00E949305811108C065E081E04C
:1004D0000E9493058823D1F3C4E00BC166E081E05C
:1004E0000E949305811108C066E081E00E94930597
:1004F0008823D1F3C1E0FDC067E081E00E9493054D
:10050000811108C067E081E00E9493058823D1F340
:10051000C3E6EFC040E062E083E00E94B30441E044
:1005200063E083E00E94B30441E062E083E00E9464
:10053000230540E063E083E00E94230564E081E05E
:100540000E949305811108C064E081E00E94930538
:100550008823D1F3C8E0CDC065E081E00E94930517
:10056000811108C065E081E00E9493058823D1F3E2
:10057000C5E0BFC066E081E00E949305811108C01C
:1005800066E081E00E9493058823D1F3C2E0B1C008
:1005900067E081E00E949305C82F811107C067E0E2
:1005A00081E00E9493058823D1F3A3C040E063E07B
:1005B00083E00E94B30441E064E083E00E94B3045E
:1005C00041E063E083E00E94230540E064E083E0D3
:1005D0000E94230564E081E00E949305811108C018
:1005E00064E081E00E9493058823D1F3C9E081C0D3
:1005F00065E081E00E949305811108C065E081E01B
:100600000E9493058823D1F3C6E073C066E081E0C1
:100610000E949305811108C066E081E00E94930565
:100620008823D1F3C3E065C067E081E00E949305B1
:10063000811108C067E081E00E9493058823D1F30F
:10064000CDE357C040E064E083E00E94B30441E0A2
:1006500065E083E00E94B30441E064E083E00E942F
:10066000230540E065E083E00E94230564E081E02B
:100670000E949305811108C064E081E00E94930507
:100680008823D1F3CFE235C065E081E00E94930575
:10069000811108C065E081E00E9493058823D1F3B1
:1006A000CAE227C066E081E00E949305811108C07C
:1006B00066E081E00E9493058823D1F3CDE219C062
:1006C00067E081E00E949305811108C067E081E046
:1006D0000E9493058823D1F3CBE20BC040E065E094
:1006E00083E00E94B30441E065E083E00E942305BB
:1006F000CFCE8C2FCF9108950F931F93CF93DF937D
:1007000000D000D0CDB7DEB7082F83E0898384E026
:100710008A8385E08B8386E08C8310E014C0402FB1
:1007200050E0012E02C0559547950A94E2F74170BA
:10073000E1E0F0E0EC0FFD1FE10FF11D608180E0D2
:100740000E9423051F5F143050F30F900F900F90FD
:100750000F90DF91CF911F910F91089541E062E0DA
:1007600080E00E9423058FE39FE10197F1F700C02D
:10077000000040E062E080E00E9423050895CF93EE
:10078000C82F41E061E080E00E94230540E060E086
:1007900080E00E9423058C2F82958F700E947C033D
:1007A0000E94AE038C2F0E947C030E94AE03CF9167
:1007B0000895CF93C82F40E061E080E00E942305B8
:1007C00040E060E080E00E9423058C2F82958F70CE
:1007D0000E947C030E94AE038C2F0E947C030E9427
:1007E000AE03CF9108952FEF83EF91E02150804029
:1007F0009040E1F700C0000082E00E947C030E946C
:10080000AE0382E00E947C030E94AE0388E00E9457
:100810007C030E94AE038CE00E94D90381E00E9419
:10082000D90308950F931F93CF938C01C0E003C0A9
:100830000E94BF03CF5FF801EC0FF11D8081811191
:10084000F7CFCF911F910F91089590E4699F800D8C
:10085000112480680E94D90308951F93CF93DF93DA
:10086000CDB7DEB72A970FB6F894DEBF0FBECDBF67
:100870006115710581059105D1F480E30E94BF03E4
:100880002CC02AE030E040E050E00E941008E1E097
:10089000F0E0EC0FFD1FE10FF11D17FDFA95605D13
:1008A0006083622F732F842F952F1F5F01C010E08C
:1008B000611571058105910521F711500CC0E1E02A
:1008C000F0E0EC0FFD1FE10FF11D17FDFA9580819F
:1008D0000E94BF031150112394F72A960FB6F89483
:1008E000DEBF0FBECDBFDF91CF911F910895CF9393
:1008F000DF93C82FD62F41E00E94B30441E06D2F53
:100900008C2F0E942305DF91CF910895CF93DF9321
:10091000C82FD62F41E00E94B30440E06D2F8C2FEA
:100920000E942305DF91CF91089587B18F7787B912
:1009300087B1806487B986B1887F86B986B18760C0
:1009400086B986B1806886B9089597B1907E97B9C7
:1009500097B1892B87B986B1806486B9349BFECF65
:1009600084B195B108954130A1F5813089F028F026
:100970008230C9F0833011F108952AB381E090E00C
:1009800002C0880F991F6A95E2F7822B8ABB0895EF
:1009900027B381E090E002C0880F991F6A95E2F7C3
:1009A000822B87BB089524B381E090E002C0880FBA
:1009B000991F6A95E2F7822B84BB089521B381E0E9
:1009C00090E002C0880F991F6A95E2F7822B81BBE5
:1009D0000895411137C0813091F028F08230D9F06C
:1009E000833029F108952AB381E090E002C0880F96
:1009F000991F6A95E2F7809582238ABB089527B3F1
:100A000081E090E002C0880F991F6A95E2F7809517
:100A1000822387BB089524B381E090E002C0880F51
:100A2000991F6A95E2F78095822384BB089521B3CC
:100A300081E090E002C0880F991F6A95E2F78095E7
:100A4000822381BB08954130A1F5813089F028F0DF
:100A50008230C9F0833011F108952BB381E090E02A
:100A600002C0880F991F6A95E2F7822B8BBB08950D
:100A700028B381E090E002C0880F991F6A95E2F7E1
:100A8000822B88BB089525B381E090E002C0880FD7
:100A9000991F6A95E2F7822B85BB089522B381E006
:100AA00090E002C0880F991F6A95E2F7822B82BB03
:100AB0000895411137C0813091F028F08230D9F08B
:100AC000833029F108952BB381E090E002C0880FB4
:100AD000991F6A95E2F7809582238BBB089528B30E
:100AE00081E090E002C0880F991F6A95E2F7809537
:100AF000822388BB089525B381E090E002C0880F6F
:100B0000991F6A95E2F78095822385BB089522B3E9
:100B100081E090E002C0880F991F6A95E2F7809506
:100B2000822382BB0895813079F028F08230A9F0C9
:100B30008330E1F024C089B390E002C09595879599
:100B40006A95E2F78170089586B390E002C09595AA
:100B500087956A95E2F78170089583B390E002C0AB
:100B6000959587956A95E2F78170089580B390E036
:100B700002C0959587956A95E2F78170089580E0A7
:100B80000895813041F028F0823039F0833039F017
:100B900008956ABB089567BB089564BB089561BB5F
:100BA0000895613049F120F0623009F449C0089598
:100BB000811107C085B78E7F85BF85B78D7F85BFC3
:100BC0000895813039F485B7816085BF85B78D7F01
:100BD00085BF0895823039F485B78E7F85BF85B78C
:100BE000826085BF08958330B1F585B7816085BF88
:100BF00085B7826085BF0895811107C085B78B7F57
:100C000085BF85B7877F85BF0895813039F485B763
:100C1000846085BF85B7877F85BF0895823039F4AA
:100C200085B78B7F85BF85B7886085BF0895833082
:100C300091F485B7846085BF85B7886085BF0895C6
:100C4000823021F484B78F7B84BF0895833019F4F8
:100C500084B7806484BF08958BB780628BBF08958A
:100C60009093E0008093DF0008951F920F920FB6DB
:100C70000F9211242F933F934F935F936F937F9322
:100C80008F939F93AF93BF93EF93FF93E091DF0018
:100C9000F091E0000995FF91EF91BF91AF919F9185
:100CA0008F917F916F915F914F913F912F910F9015
:100CB0000FBE0F901F9018958FB780688FBF089553
:100CC0000E9474060C9455070E944E0758F00E942B
:100CD000470740F029F45F3F29F00C943E0751117B
:100CE0000C9489070C9444070E94660768F39923C3
:100CF000B1F3552391F3951B550BBB27AA27621718
:100D00007307840738F09F5F5F4F220F331F441F24
:100D1000AA1FA9F335D00E2E3AF0E0E832D0915058
:100D20005040E695001CCAF72BD0FE2F29D0660F45
:100D3000771F881FBB1F261737074807AB07B0E888
:100D400009F0BB0B802DBF01FF2793585F4F3AF08E
:100D50009E3F510578F00C943E070C9489075F3F45
:100D6000E4F3983ED4F3869577956795B795F79514
:100D70009F5FC9F7880F911D9695879597F90895FC
:100D8000E1E0660F771F881FBB1F62177307840798
:100D9000BA0720F0621B730B840BBA0BEE1F88F7A7
:100DA000E09508950E946E0788F09F5798F0B92F3C
:100DB0009927B751B0F0E1F0660F771F881F991F90
:100DC0001AF0BA95C9F714C0B13091F00E948807A3
:100DD000B1E008950C948807672F782F8827B85FB3
:100DE00039F0B93FCCF3869577956795B395D9F7E8
:100DF0003EF490958095709561957F4F8F4F9F4FF2
:100E00000895E89409C097FB3EF4909580957095FD
:100E100061957F4F8F4F9F4F9923A9F0F92F96E946
:100E2000BB279395F695879577956795B795F111BB
:100E3000F8CFFAF4BB0F11F460FF1BC06F5F7F4F58
:100E40008F4F9F4F16C0882311F096E911C077236A
:100E500021F09EE8872F762F05C0662371F096E873
:100E6000862F70E060E02AF09A95660F771F881F42
:100E7000DAF7880F9695879597F9089597F99F6700
:100E800080E870E060E008959FEF80EC0895002412
:100E90000A941616170618060906089500240A94DF
:100EA00012161306140605060895092E0394000C65
:100EB00011F4882352F0BB0F40F4BF2B11F460FFF4
:100EC00004C06F5F7F4F8F4F9F4F089557FD90581D
:100ED000440F551F59F05F3F71F04795880F97FBFE
:100EE000991F61F09F3F79F08795089512161306B8
:100EF0001406551FF2CF4695F1DF08C016161706E7
:100F00001806991FF1CF869571056105089408951B
:100F1000E894BB2766277727CB0197F908950E94AD
:100F2000A2070C9455070E94470738F00E944E070D
:100F300020F0952311F00C943E070C9444071124E3
:100F40000C9489070E94660770F3959FC1F3950F73
:100F500050E0551F629FF001729FBB27F00DB11D3D
:100F6000639FAA27F00DB11DAA1F649F6627B00DCD
:100F7000A11D661F829F2227B00DA11D621F739FB6
:100F8000B00DA11D621F839FA00D611D221F749FC4
:100F90003327A00D611D231F849F600D211D822F0B
:100FA000762F6A2F11249F5750409AF0F1F0882332
:100FB0004AF0EE0FFF1FBB1F661F771F881F91505F
:100FC0005040A9F79E3F510580F00C943E070C94C9
:100FD00089075F3FE4F3983ED4F38695779567954C
:100FE000B795F795E7959F5FC1F7FE2B880F911D89
:100FF0009695879597F90895AA1BBB1B51E107C0E9
:10100000AA1FBB1FA617B70710F0A61BB70B881F98
:10101000991F5A95A9F780959095BC01CD01089527
:10102000A1E21A2EAA1BBB1BFD010DC0AA1FBB1FEC
:10103000EE1FFF1FA217B307E407F50720F0A21B5E
:10104000B30BE40BF50B661F771F881F991F1A94CB
:1010500069F760957095809590959B01AC01BD01F5
:08106000CF010895F894FFCFC1
:10106800504F574552204F46460007010409456E28
:101078007465722050617373776F72643A200057F9
:10108800454C434F4D4520544F20534D4152542019
:10109800484F4D4500486967682054656D70657212
:1010A800617475726521210054656D706572617493
:1010B8007572653A20004C696768743A200044618B
:1010C800792020004E69676874005472792041675E
:0610D80061696E2E0000AC
:00000001FF
