S00B00007373642E73726563CF
S11300000C942A000C943F000C943F000C943F0085
S11300100C943F000C943F000C943F000C943F0060
S11300200C943F000C943F000C943F000C943F0050
S11300300C943F000C943F000C943F000C943F0040
S11300400C943F000C943F000C943F000C943F0030
S11300500C943F0011241FBECFE5D8E0DEBFCDBF16
S113006010E0A0E6B0E0E2EFF0E002C005900D92EF
S1130070AA36B107D9F70E9441000C9477000C947A
S11300800000CF93DF93CDB7DEB72A970FB6F8946D
S1130090DEBF0FBECDBF84B38E7F84BB8FEF8ABB20
S11300A08AE0E0E6F0E0DE01119601900D928A9577
S11300B0E1F784B3806484BB85B3806485BB80E04E
S11300C013C0E1E0F0E0EC0FFD1FE80FF11D90819B
S11300D0990F9BBB2FEF3FE097E2215030409040B7
S11300E0E1F700C000008F5F8A3058F3E8CFF8943E
S10500F0FFCF3C
S10D00F23F065B4F666D7D077F6FCC
S9030000FC
