:100000000C9434000C943E000C943E000C943E0082
:100010000C943E000C943E000C943E000C943E0068
:100020000C943E000C943E000C943E000C943E0058
:100030000C943E000C943E000C943E000C943E0048
:100040000C943E000C943E000C943E000C943E0038
:100050000C943E0028014C0170019401B801DC01B0
:100060000002240248026C0211241FBECFE5D8E032
:10007000DEBFCDBF0E9440000C94D7040C9400005A
:1000800061E080E00E94700341E066E082E00E944F
:10009000900241E067E082E00E94900241E060E06F
:1000A00082E00E94900241E061E082E00E949002C2
:1000B00041E062E082E00E94900241E060E082E084
:1000C0000E940003D5E032C041E067E082E00E9478
:1000D000000340E066E082E00E9400038D2F0E9452
:1000E0001E012FEF87EE93E0215080409040E1F712
:1000F00000C0000040E067E082E00E94000341E0B1
:1001000066E082E00E9400038C2F0E941E012FEF08
:1001100087EE93E0215080409040E1F700C000005E
:10012000C15001C0C9E0CC237CF6D150DD23D4F707
:1001300040E060E082E00E94000341E062E082E093
:100140000E940003D2E032C041E067E082E00E94FA
:10015000000340E066E082E00E9400038D2F0E94D1
:100160001E012FEF87EE93E0215080409040E1F791
:1001700000C0000040E067E082E00E94000341E030
:1001800066E082E00E9400038C2F0E941E012FEF88
:1001900087EE93E0215080409040E1F700C00000DE
:1001A000C15001C0C9E0CC237CF6D150DD23D4F787
:1001B00040E062E082E00E94000341E061E082E012
:1001C0000E940003D2E032C041E067E082E00E947A
:1001D000000340E066E082E00E9400038D2F0E9451
:1001E0001E012FEF87EE93E0215080409040E1F711
:1001F00000C0000040E067E082E00E94000341E0B0
:1002000066E082E00E9400038C2F0E941E012FEF07
:1002100087EE93E0215080409040E1F700C000005D
:10022000C15001C0C9E0CC237CF6D150DD23D4F706
:1002300040E061E082E00E9400033FCF90E08A301E
:10024000910508F06CC1FC01E65DFF4F0C94D104F0
:1002500041E061E080E00E94000341E062E080E074
:100260000E94000341E063E080E00E94000341E05F
:1002700064E080E00E94000341E065E080E00E94CD
:10028000000341E066E080E00E94000340E067E098
:1002900080E00E940003089540E061E080E00E9459
:1002A000000341E062E080E00E94000341E063E07F
:1002B00080E00E94000340E064E080E00E940003D0
:1002C00040E065E080E00E94000340E066E080E0FE
:1002D0000E94000340E067E080E00E940003089570
:1002E00041E061E080E00E94000341E062E080E0E4
:1002F0000E94000340E063E080E00E94000341E0D0
:1003000064E080E00E94000341E065E080E00E943C
:10031000000340E066E080E00E94000341E067E007
:1003200080E00E940003089541E061E080E00E94C7
:10033000000341E062E080E00E94000341E063E0EE
:1003400080E00E94000341E064E080E00E9400033E
:1003500040E065E080E00E94000340E066E080E06D
:100360000E94000341E067E080E00E9400030895DE
:1003700040E061E080E00E94000341E062E080E054
:100380000E94000341E063E080E00E94000340E03F
:1003900064E080E00E94000340E065E080E00E94AD
:1003A000000341E066E080E00E94000341E067E076
:1003B00080E00E940003089541E061E080E00E9437
:1003C000000340E062E080E00E94000341E063E05F
:1003D00080E00E94000341E064E080E00E940003AE
:1003E00040E065E080E00E94000341E066E080E0DC
:1003F0000E94000341E067E080E00E94000308954E
:1004000041E061E080E00E94000340E062E080E0C3
:100410000E94000341E063E080E00E94000341E0AD
:1004200064E080E00E94000341E065E080E00E941B
:10043000000341E066E080E00E94000341E067E0E5
:1004400080E00E940003089541E061E080E00E94A6
:10045000000341E062E080E00E94000341E063E0CD
:1004600080E00E94000340E064E080E00E9400031E
:1004700040E065E080E00E94000340E066E080E04C
:100480000E94000340E067E080E00E9400030895BE
:1004900041E061E080E00E94000341E062E080E032
:1004A0000E94000341E063E080E00E94000341E01D
:1004B00064E080E00E94000341E065E080E00E948B
:1004C000000341E066E080E00E94000341E067E055
:1004D00080E00E940003089541E061E080E00E9416
:1004E000000341E062E080E00E94000341E063E03D
:1004F00080E00E94000341E064E080E00E9400038D
:1005000040E065E080E00E94000341E066E080E0BA
:100510000E94000341E067E080E00E94000308952C
:100520004130A1F5813089F028F08230C9F0833064
:1005300011F108952AB381E090E002C0880F991F5D
:100540006A95E2F7822B8ABB089527B381E090E099
:1005500002C0880F991F6A95E2F7822B87BB089526
:1005600024B381E090E002C0880F991F6A95E2F7FA
:10057000822B84BB089521B381E090E002C0880FF4
:10058000991F6A95E2F7822B81BB0895411137C00C
:10059000813091F028F08230D9F0833029F108952C
:1005A0002AB381E090E002C0880F991F6A95E2F7B4
:1005B000809582238ABB089527B381E090E002C032
:1005C000880F991F6A95E2F78095822387BB08956B
:1005D00024B381E090E002C0880F991F6A95E2F78A
:1005E0008095822384BB089521B381E090E002C00E
:1005F000880F991F6A95E2F78095822381BB089541
:100600004130A1F5813089F028F08230C9F0833083
:1006100011F108952BB381E090E002C0880F991F7B
:100620006A95E2F7822B8BBB089528B381E090E0B6
:1006300002C0880F991F6A95E2F7822B88BB089544
:1006400025B381E090E002C0880F991F6A95E2F718
:10065000822B85BB089522B381E090E002C0880F11
:10066000991F6A95E2F7822B82BB0895411137C02A
:10067000813091F028F08230D9F0833029F108954B
:100680002BB381E090E002C0880F991F6A95E2F7D2
:10069000809582238BBB089528B381E090E002C04F
:1006A000880F991F6A95E2F78095822388BB089589
:1006B00025B381E090E002C0880F991F6A95E2F7A8
:1006C0008095822385BB089522B381E090E002C02B
:1006D000880F991F6A95E2F78095822382BB08955F
:1006E000613009F0AEC0813089F138F0823009F410
:1006F00056C0833009F47CC0089541E060E080E09A
:100700000E94900241E061E080E00E94900241E09E
:1007100062E080E00E94900241E063E080E00E949D
:10072000900241E064E080E00E94900241E065E0D8
:1007300080E00E94900241E066E080E00E9490022A
:1007400041E067E080E00E949002089541E060E0AF
:1007500081E00E94900241E061E081E00E9490020D
:1007600041E062E081E00E94900241E063E081E0CC
:100770000E94900241E064E081E00E94900241E02A
:1007800065E081E00E94900241E066E081E00E9425
:10079000900241E067E081E00E949002089541E00C
:1007A00060E082E00E94900241E061E082E00E940D
:1007B000900241E062E082E00E94900241E063E04A
:1007C00082E00E94900241E064E082E00E94900298
:1007D00041E065E082E00E94900241E066E082E054
:1007E0000E94900241E067E082E00E94900208953A
:1007F00041E060E083E00E94900241E061E083E03C
:100800000E94900241E062E083E00E94900241E099
:1008100063E083E00E94900241E064E083E00E9494
:10082000900241E065E083E00E94900241E066E0D2
:1008300083E00E94900241E067E083E00E94900222
:1008400008956111ADC0813089F138F0823009F42A
:1008500056C0833009F47CC0089540E060E080E039
:100860000E94900240E061E080E00E94900240E03F
:1008700062E080E00E94900240E063E080E00E943D
:10088000900240E064E080E00E94900240E065E079
:1008900080E00E94900240E066E080E00E949002CA
:1008A00040E067E080E00E949002089540E060E050
:1008B00081E00E94900240E061E081E00E949002AD
:1008C00040E062E081E00E94900240E063E081E06D
:1008D0000E94900240E064E081E00E94900240E0CB
:1008E00065E081E00E94900240E066E081E00E94C5
:1008F000900240E067E081E00E949002089540E0AD
:1009000060E082E00E94900240E061E082E00E94AC
:10091000900240E062E082E00E94900240E063E0EA
:1009200082E00E94900240E064E082E00E94900237
:1009300040E065E082E00E94900240E066E082E0F4
:100940000E94900240E067E082E00E9490020895D9
:1009500040E060E083E00E94900240E061E083E0DC
:100960000E94900240E062E083E00E94900240E03A
:1009700063E083E00E94900240E064E083E00E9434
:10098000900240E065E083E00E94900240E066E073
:1009900083E00E94900240E067E083E00E949002C2
:1009A0000895EE0FFF1F0590F491E02D0994F8943F
:0209B000FFCF77
:00000001FF
