:100000000C942A000C9434000C9434000C943400AA
:100010000C9434000C9434000C9434000C94340090
:100020000C9434000C9434000C9434000C94340080
:100030000C9434000C9434000C9434000C94340070
:100040000C9434000C9434000C9434000C94340060
:100050000C94340011241FBECFE5D8E0DEBFCDBF25
:100060000E9436000C94D9020C9400006FEF80E0DF
:100070000E94A70240E062E083E00E94990140E014
:1000800063E083E00E94990140E064E083E00E9425
:10009000990141E062E083E00E94090241E063E0EF
:1000A00083E00E94090241E064E083E00E940902CB
:1000B0000E94280160E080E00E94470160E070E05B
:1000C000CB010E944F01C0E001C0C0E062E083E0CC
:1000D0000E947902811114C062E083E00E947902DB
:1000E0008823D1F3C93089F3CF5F60E080E00E94BC
:1000F00047016C2F70E080E090E00E944F01E6CF56
:1001000063E083E00E947902811114C063E083E020
:100110000E9479028823D1F3CC23C1F2C15060E060
:1001200080E00E9447016C2F70E080E090E00E9428
:100130004F01CCCF64E083E00E9479028111C6CFE9
:1001400064E083E00E9479028823D1F360E080E0DC
:100150000E94470160E070E0CB010E944F01C0E0C7
:10016000B5CF0F931F93CF93DF9300D000D0CDB7BF
:10017000DEB7082F83E0898384E08A8385E08B8360
:1001800086E08C8310E014C0402F50E0012E02C0A6
:10019000559547950A94E2F74170E1E0F0E0EC0FE5
:1001A000FD1FE10FF11D608180E00E9409021F5FC9
:1001B000143050F30F900F900F900F90DF91CF916C
:1001C0001F910F91089541E062E080E00E940902D2
:1001D0008FE39FE10197F1F700C0000040E062E08B
:1001E00080E00E9409020895CF93C82F41E061E0AA
:1001F00080E00E94090240E060E080E00E94090285
:100200008C2F82958F700E94B1000E94E3008C2F8A
:100210000E94B1000E94E300CF910895CF93C82FB0
:1002200040E061E080E00E94090240E060E080E0A0
:100230000E9409028C2F82958F700E94B1000E944B
:10024000E3008C2F0E94B1000E94E300CF9108953B
:100250002FEF83EF91E0215080409040E1F700C004
:10026000000082E00E94B1000E94E30082E00E9450
:10027000B1000E94E30088E00E94B1000E94E30008
:100280008CE00E940E0181E00E940E01089590E42E
:10029000699F800D112480680E940E0108951F93AC
:1002A000CF93DF93CDB7DEB72A970FB6F894DEBFB2
:1002B0000FBECDBF6115710581059105D1F480E3B5
:1002C0000E94F4002CC02AE030E040E050E00E94A0
:1002D000B702E1E0F0E0EC0FFD1FE10FF11D17FDAB
:1002E000FA95605D6083622F732F842F952F1F5FB7
:1002F00001C010E0611571058105910521F71150CC
:100300000CC0E1E0F0E0EC0FFD1FE10FF11D17FD67
:10031000FA9580810E94F4001150112394F72A96D7
:100320000FB6F894DEBF0FBECDBFDF91CF911F9106
:1003300008954130A1F5813089F028F08230C9F06C
:10034000833011F108952AB381E090E002C0880F54
:10035000991F6A95E2F7822B8ABB089527B381E043
:1003600090E002C0880F991F6A95E2F7822B87BB45
:10037000089524B381E090E002C0880F991F6A9528
:10038000E2F7822B84BB089521B381E090E002C0A4
:10039000880F991F6A95E2F7822B81BB089541115E
:1003A00037C0813091F028F08230D9F0833029F1C4
:1003B00008952AB381E090E002C0880F991F6A95E2
:1003C000E2F7809582238ABB089527B381E090E00D
:1003D00002C0880F991F6A95E2F78095822387BB38
:1003E000089524B381E090E002C0880F991F6A95B8
:1003F000E2F78095822384BB089521B381E090E0E9
:1004000002C0880F991F6A95E2F78095822381BB0D
:1004100008954130A1F5813089F028F08230C9F08B
:10042000833011F108952BB381E090E002C0880F72
:10043000991F6A95E2F7822B8BBB089528B381E060
:1004400090E002C0880F991F6A95E2F7822B88BB63
:10045000089525B381E090E002C0880F991F6A9546
:10046000E2F7822B85BB089522B381E090E002C0C1
:10047000880F991F6A95E2F7822B82BB089541117C
:1004800037C0813091F028F08230D9F0833029F1E3
:1004900008952BB381E090E002C0880F991F6A9500
:1004A000E2F7809582238BBB089528B381E090E02A
:1004B00002C0880F991F6A95E2F78095822388BB56
:1004C000089525B381E090E002C0880F991F6A95D6
:1004D000E2F78095822385BB089522B381E090E006
:1004E00002C0880F991F6A95E2F78095822382BB2C
:1004F0000895813079F028F08230A9F08330E1F05E
:1005000024C089B390E002C0959587956A95E2F77B
:100510008170089586B390E002C0959587956A959D
:10052000E2F78170089583B390E002C095958795B6
:100530006A95E2F78170089580B390E002C09595C6
:1005400087956A95E2F78170089580E0089581307B
:1005500041F028F0823039F0833039F008956ABBD9
:10056000089567BB089564BB089561BB0895A1E237
:100570001A2EAA1BBB1BFD010DC0AA1FBB1FEE1F1D
:10058000FF1FA217B307E407F50720F0A21BB30B68
:10059000E40BF50B661F771F881F991F1A9469F7E4
:1005A00060957095809590959B01AC01BD01CF0140
:0605B0000895F894FFCF4E
:00000001FF
