:100000000C942A000C942E030C948B000C949C00EE
:100010000C943C000C943C000C943C000C943C0070
:100020000C943C000C943C000C943C000C943C0060
:100030000C943C000C943C000C943C000C943C0050
:100040000C943C000C943C000C943C000C943C0040
:100050000C943C0011241FBECFE5D8E0DEBFCDBF1D
:1000600020E0A0E6B0E001C01D92A336B207E1F7A0
:100070000E9443000C947B030C94000062E083E038
:100080000E949001089540E062E083E00E949E019A
:1000900041E062E083E00E940E0240E063E083E022
:1000A0000E949E0141E063E083E00E940E0240E076
:1000B00062E081E00E949E0141E062E081E00E94F6
:1000C0000E020E94550360E083E00E94C2020E947B
:1000D0001D038EE390E00E94290361E083E00E940B
:1000E000C2020E94210362E083E00E94C2020E94D9
:1000F00025036FEF80E00E94B2020E941F0160E0C2
:1001000080E00E943E016091600070E080E090E03D
:100110000E944601F4CF1F920F920FB60F92112446
:100120008F93809160008150809360008F910F9039
:100130000FBE0F901F9018951F920F920FB60F923F
:100140001124109260000F900FBE0F901F90189511
:100150000F931F93CF93DF9300D000D0CDB7DEB7BE
:10016000082F83E0898384E08A8385E08B8386E09F
:100170008C8310E014C0402F50E0012E02C0559532
:1001800047950A94E2F74170E1E0F0E0EC0FFD1FC3
:10019000E10FF11D608180E00E940E021F5F1430AC
:1001A00050F30F900F900F900F90DF91CF911F9110
:1001B0000F91089541E062E080E00E940E028FE31B
:1001C0009FE10197F1F700C0000040E062E080E0AD
:1001D0000E940E020895CF93C82F41E061E080E0B5
:1001E0000E940E0240E060E080E00E940E028C2F30
:1001F00082958F700E94A8000E94DA008C2F0E94C6
:10020000A8000E94DA00CF910895CF93C82F40E054
:1002100061E080E00E940E0240E060E080E00E9429
:100220000E028C2F82958F700E94A8000E94DA0027
:100230008C2F0E94A8000E94DA00CF9108952FEF22
:1002400083EF91E0215080409040E1F700C0000032
:1002500082E00E94A8000E94DA0082E00E94A800CA
:100260000E94DA0088E00E94A8000E94DA008CE078
:100270000E94050181E00E940501089590E4699FB4
:10028000800D112480680E94050108951F93CF936B
:10029000DF93CDB7DEB72A970FB6F894DEBF0FBE57
:1002A000CDBF6115710581059105D1F480E30E94F0
:1002B000EB002CC02AE030E040E050E00E945903FF
:1002C000E1E0F0E0EC0FFD1FE10FF11D17FDFA95E5
:1002D000605D6083622F732F842F952F1F5F01C095
:1002E00010E0611571058105910521F711500CC0D1
:1002F000E1E0F0E0EC0FFD1FE10FF11D17FDFA95B5
:1003000080810E94EB001150112394F72A960FB6BA
:10031000F894DEBF0FBECDBFDF91CF911F9108953E
:10032000CF93DF93C82FD62F41E00E949E016D2FFF
:100330008C2F0E947E02DF91CF9108954130A1F56C
:10034000813089F028F08230C9F0833011F10895AE
:100350002AB381E090E002C0880F991F6A95E2F706
:10036000822B8ABB089527B381E090E002C0880FFA
:10037000991F6A95E2F7822B87BB089524B381E029
:1003800090E002C0880F991F6A95E2F7822B84BB28
:10039000089521B381E090E002C0880F991F6A950B
:1003A000E2F7822B81BB0895411137C0813091F073
:1003B00028F08230D9F0833029F108952AB381E002
:1003C00090E002C0880F991F6A95E2F7809582231A
:1003D0008ABB089527B381E090E002C0880F991F7F
:1003E0006A95E2F78095822387BB089524B381E064
:1003F00090E002C0880F991F6A95E2F780958223EA
:1004000084BB089521B381E090E002C0880F991F5A
:100410006A95E2F78095822381BB08954130A1F56A
:10042000813089F028F08230C9F0833011F10895CD
:100430002BB381E090E002C0880F991F6A95E2F724
:10044000822B8BBB089528B381E090E002C0880F17
:10045000991F6A95E2F7822B88BB089525B381E046
:1004600090E002C0880F991F6A95E2F7822B85BB46
:10047000089522B381E090E002C0880F991F6A9529
:10048000E2F7822B82BB0895411137C0813091F091
:1004900028F08230D9F0833029F108952BB381E020
:1004A00090E002C0880F991F6A95E2F78095822339
:1004B0008BBB089528B381E090E002C0880F991F9C
:1004C0006A95E2F78095822388BB089525B381E081
:1004D00090E002C0880F991F6A95E2F78095822309
:1004E00085BB089522B381E090E002C0880F991F78
:1004F0006A95E2F78095822382BB0895813089F066
:1005000028F08230C9F0833011F108952BB381E0D7
:1005100090E002C0880F991F6A95E2F782278BBB93
:10052000089528B381E090E002C0880F991F6A9572
:10053000E2F7822788BB089525B381E090E002C0EE
:10054000880F991F6A95E2F7822785BB089522B329
:1005500081E090E002C0880F991F6A95E2F7822738
:1005600082BB0895813041F028F0823039F0833029
:1005700039F008956ABB089567BB089564BB089578
:1005800061BB0895613049F120F0623009F449C03F
:100590000895811107C085B78E7F85BF85B78D7F90
:1005A00085BF0895813039F485B7816085BF85B7EF
:1005B0008D7F85BF0895823039F485B78E7F85BFE2
:1005C00085B7826085BF08958330B1F585B78160B6
:1005D00085BF85B7826085BF0895811107C085B743
:1005E0008B7F85BF85B7877F85BF0895813039F4BC
:1005F00085B7846085BF85B7877F85BF08958230C2
:1006000039F485B78B7F85BF85B7886085BF08952E
:10061000833091F485B7846085BF85B7886085BFD6
:100620000895823021F484B78F7B84BF089583308E
:1006300019F484B7806484BF08958BB780648BBF3E
:1006400008958BB780688BBF08958BB780628BBF8E
:100650000895909362008093610008951F920F9215
:100660000FB60F9211242F933F934F935F936F9385
:100670007F938F939F93AF93BF93EF93FF93E091FB
:100680006100F09162000995FF91EF91BF91AF91E8
:100690009F918F917F916F915F914F913F912F919A
:1006A0000F900FBE0F901F9018958FB780688FBF67
:1006B0000895A1E21A2EAA1BBB1BFD010DC0AA1FA3
:1006C000BB1FEE1FFF1FA217B307E407F50720F0BB
:1006D000A21BB30BE40BF50B661F771F881F991F36
:1006E0001A9469F760957095809590959B01AC017F
:0A06F000BD01CF010895F894FFCF7B
:00000001FF
