S00D0000436F756E742E737265630E
S11300000C942A000C9434000C9434000C943400A6
S11300100C9434000C9434000C9434000C9434008C
S11300200C9434000C9434000C9434000C9434007C
S11300300C9434000C9434000C9434000C9434006C
S11300400C9434000C9434000C9434000C9434005C
S11300500C94340011241FBECFE5D8E0DEBFCDBF21
S11300600E9436000C946A000C9400008AB38E7FC0
S11300708ABB84B3816084BB84B3806184BB84B352
S1130080806884BB80E023C0C8991EC080FF04C080
S113009095B3916095BB03C095B39E7F95BB81FFDB
S11300A004C095B3906195BB03C095B39F7E95BB87
S11300B082FF04C095B3906895BB03C095B39F7746
S11300C095BBC89BFECF8F5F883009F480E08930F0
S10B00D0F0F7DACFF894FFCF3A
S9030000FC
